:100000001EC038C048C136C035C034C033C032C04D
:1000100031C0B4C32FC052C42DC088C42CC02AC064
:1000200072C128C027C026C025C0C2C0C4C0C5C078
:10003000C6C0C7C0C8C0C9C0CAC0CBC0CCC01124CC
:100040001FBECFE5D2E0DEBFCDBF11E0A0E6B0E03D
:10005000E4E8FAE102C005900D92A036B107D9F7A5
:1000600011E0A0E6B1E001C01D92AE38B107E1F7A2
:1000700015D206CDC5CF1F920F920FB60F92112445
:100080002F933F934F935F936F937F938F939F93A0
:10009000AF93BF93EF93FF93E0916201F0916301FF
:1000A000309729F080916001909161010995FF914D
:1000B000EF91BF91AF919F918F917F916F915F91E0
:1000C0004F913F912F910F900FBE0F901F90189559
:1000D000F89490936301809362017093610160933F
:1000E000600178940895369A3699FECF85B10895C7
:1000F000FC01A081B181369A3699FECF85B18C93EF
:100100000280F381E02D81E08083109263011092E0
:10011000620110926101109260010895892B31F003
:10012000672B21F01092610110926001A5DC809193
:1001300064018111A1DC89E687B98FE886B981E085
:10014000809364010895DF93CF930F92CDB7DEB70C
:1001500089838981803318F480E090E008C0898128
:1001600090E08A3308F091E081E09827892F0F9082
:10017000CF91DF910895DF93CF930F92CDB7DEB784
:1001800089839B016115710561F18981803350F18B
:1001900090E08A3308F091E0992321F5898190E07D
:1001A000FC01F097EA30F105E0F4EB5EFF4F0994B3
:1001B000F901108213C081E00FC082E00DC083E01E
:1001C0000BC084E009C085E007C086E005C087E079
:1001D00003C088E001C089E0F901808320E030E0BD
:1001E00003C04ADC2FEF3FEFC9010F90CF91DF91A1
:1001F00008951F93182F959A95BB959862E070E02B
:1002000080E090E0FED2949A15BB949862E070E092
:1002100080E090E0F6D21F910895DF93CF930F9284
:10022000CDB7DEB7E6DF5FDF89838FE090E0E1DF07
:1002300089810F90CF91DF910895662311F0979AED
:1002400001C09798D6DF8FE090E0D3DF08950F9339
:100250001F93CFDF00B38FE090E0CBDF10E086E0AC
:10026000169507958A95E1F7802F81701F910F9160
:100270000895809165018111FFDB8FEF84BB8D9A1A
:100280008C9A8F9A8E98969A8FE090E0B2DF81E0F8
:100290008093650108951F920F920FB60F9211245B
:1002A0002F933F934F935F936F937F938F939F937E
:1002B000AF93BF93EF93FF93E0916601F0916701D5
:1002C000309729F080916801909169010995FF911B
:1002D000EF91BF91AF919F918F917F916F915F91BE
:1002E0004F913F912F910F900FBE0F901F90189537
:1002F000F89490936701809366017093690160930D
:100300006801789408951F920F920FB60F921124EE
:100310002F933F934F935F936F937F938F939F930D
:10032000AF93BF93EF93FF93789481E437D38CE43A
:1003300035D381E433D382E531D38DE42FD36AE022
:1003400070E080E090E05DD288E090E060E075DFF2
:100350008895FF91EF91BF91AF919F918F917F9180
:100360006F915F914F913F912F910F900FBE0F9022
:100370001F901895F89480916A0181117DDB8BB7ED
:1003800080688BBF85B7826085BF85B78B7F85BF4F
:100390008B98939A47984698439A419A4098BA986E
:1003A000BB98C29AC39A85B7806485BF85B78F779B
:1003B00085BF85B7806285BF85B78F7E85BF81E0A9
:1003C00080936A01789408950F931F938C0189E0BC
:1003D00090E0F801608131DF8AE090E0F80161810E
:1003E0002CDF8BE090E0F801628127DF8CE090E069
:1003F000F801638122DF8DE090E0F80164811DDF68
:100400008EE090E0F801658118DF1F910F9108954B
:10041000EF92FF920F931F93DF93CF9300D00F9231
:10042000CDB7DEB78C017B0119821A821B8244D3BF
:10043000898342D38A8340D38B83898184DE882356
:10044000B1F38A8180DE882391F38B817CDE88235F
:1004500071F38981BE016F5F7F4F8DDE8A81BE019E
:100460006E5F7F4F88DE8B81BE016D5F7F4F83DEC5
:100470008981F80180838A812B813AE0839FC001C2
:100480001124280FF70120830F900F900F90CF9128
:10049000DF911F910F91FF90EF900895DF92EF92FF
:1004A000FF920F931F93DF93CF9300D000D000D023
:1004B000CDB7DEB7F89460E079E08DE390E020E816
:1004C00035E240E050E053D320E039E04DE350E026
:1004D00060E070E080E090E0B1D129DE4BDFC9DE62
:1004E000789488E090E061E0A8DE19821A821B828D
:1004F00082E0E82EF12CEC0EFD1E8E010F5F1F4FE7
:10050000C801B70185DF89818730D0F389818A30BE
:10051000B8F78A818A30A0F38A818D3088F71C82EF
:100520001D821E82F89410926B0110926C01109241
:100530006D0110926E0110926F011092700178940B
:1005400084EE91E06BE671E0D3DE88E090E061E05C
:1005500074DE88E190E061E070DE80E090E077DEBC
:1005600011E0E82EE12681E090E071DEF82EF12620
:1005700082E090E06CDE082F012783E090E067DEE8
:100580001827EE2019F480E090E013C0FF2021F43A
:1005900020E030E0112311F421E030E040E081E080
:1005A000802790E08217930709F441E081E0482713
:1005B000842FD82E84E090E030DE8C8385E090E0BC
:1005C0002CDE8D833D819A812C818981939F902D92
:1005D0001124829F802D1124981B9E8380E190E03E
:1005E00036DE882319F48B81816002C08B818E7F77
:1005F0008B8381E190E02BDE882319F48B8182606C
:1006000002C08B818D7F8B8382E190E020DE882386
:1006100019F48B81846002C08B818B7F8B8383E193
:1006200090E015DE882319F48B81886002C08B81ED
:10063000877F8B8384E190E00ADE882319F48B8125
:10064000806102C08B818F7E8B8385E190E0FFDD2E
:10065000882319F48B81806202C08B818F7D8B830C
:1006600086E190E0F4DD882319F48B81806402C078
:100670008B818F7B8B8387E190E0E9DD882319F400
:100680008B81806802C08B818F778B83F894E09296
:100690006B01F0926C0100936D0110936E01EE20DE
:1006A00019F480E090E013C0FF2021F420E030E056
:1006B000112311F421E030E040E081E0802790E058
:1006C0008217930709F441E081E04827842F809343
:1006D0006F01EF1419F480E090E007C090E001177B
:1006E00009F491E081E09827892F80937001789434
:1006F00088E190E060E0A1DDDD2021F086E090E07F
:1007000061E09BDD87E090E061E097DD60ED77E000
:1007100080E090E076D0DD2021F086E090E060E09F
:100720008CDD9E818B81891720F487E090E060E06A
:1007300084DD60ED77E080E090E063D087E090E0DA
:1007400060E07BDD60ED77E080E090E05AD0DD2076
:1007500021F086E090E061E070DD60ED77E080E020
:1007600090E04FD0DD2021F086E090E060E065DD94
:1007700060EA7FE080E090E044D0E7CE1F920F92E5
:100780000FB60F9211248F939F93AF93BF93EF9364
:10079000FF93E0917101F09172013097B9F080817F
:1007A0009181A281B3810097A105B10579F00197EC
:1007B000A109B10980839183A283B3830097A10526
:1007C000B10521F4109272011092710180917301B0
:1007D00082BFFF91EF91BF91AF919F918F910F9049
:1007E0000FBE0F901F9018959C0180917101909100
:1007F0007201892B09F040D9309372012093710165
:100800000895DF93CF9300D000D0CDB7DEB76983D2
:100810007A838B839C83CE010196E6DF89819A815E
:10082000AB81BC810097A105B10509F0FFCF0F9006
:100830000F900F900F90CF91DF910895AF92BF92DC
:10084000CF92DF92EF92FF920F931F93E82FF894CD
:1008500080917B01811110D98E2F03E0C0D1F8EE79
:10086000AF2EE3E0BE2ECC24DD24EE24FF2400E0F6
:1008700010E034D2209373013093740140937501DA
:10088000509376016093770170937801809379019A
:1008900090937A0113BE83B7826083BF89B781606A
:1008A00089BF81E080937B0178941F910F91FF9025
:1008B000EF90DF90CF90BF90AF9008951F920F926E
:1008C0000FB60F9211242F933F934F935F936F9323
:1008D0007F938F939F93AF93BF93EF93FF93E09199
:1008E0008B01F0918C01309729F0809183019091D8
:1008F00084010995FF91EF91BF91AF919F918F91E5
:100900007F916F915F914F913F912F910F900FBE0B
:100910000F901F901895F89490938C0180938B0101
:100920007093840160938301789408951F920F92CD
:100930000FB60F9211242F933F934F935F936F93B2
:100940007F938F939F93AF93BF93EF93FF93E09128
:100950008101F0918201309729F080917C01909182
:100960007D010995FF91EF91BF91AF919F918F917B
:100970007F916F915F914F913F912F910F900FBE9B
:100980000F901F901895F8949093820180938101A5
:1009900070937D0160937C0178940895DF93CF93E9
:1009A0000F92CDB7DEB789835D9BFECF89818CB96D
:1009B0000F90CF91DF910895DF93CF930F92CDB732
:1009C000DEB7898380917C0190917D01892B09F0AC
:1009D00053D889818983898180937E0170938001B6
:1009E00060937F01F89484E095E090938201809376
:1009F00081018EE791E090937D0180937C01789452
:100A00000F90CF91DF910895FC01009709F434D83D
:100A100080815D9BFECF8CB90180F281E02D309703
:100A200011F081E080831092820110928101109276
:100A30007D0110927C0108959C01009731F0809116
:100A4000830190918401892B09F016D83093860197
:100A500020938501709388016093870150938A01E8
:100A600040938901F89482E795E090938C018093FC
:100A70008B0185E891E090938401809383017894C1
:100A8000089540E050E0D8DF0895FC01009709F494
:100A9000F3D75F9BFECF5C9904C05B9902C05A9B61
:100AA00005C08CB180832FEF3FEF04C08CB18083F1
:100AB00020E030E0C90108950F931F93DF93CF9397
:100AC0000F92CDB7DEB719828E010F5F1F4FC8019D
:100AD000DCDF892BE1F789810F90CF91DF911F91A6
:100AE0000F910895FF920F931F93DF93CF930F926F
:100AF000CDB7DEB78C01009709F4BED7FF24DC0127
:100B000014968D919C911597892B11F4FF24F394E1
:100B10001982CE010196B9DF9C01009711F0FF20E8
:100B2000F9F4D801ED91FC91119789818083FF2020
:100B300031F41496ED91FC91159731832083D801FF
:100B40001296ED91FC911397309711F081E080831C
:100B500010928C0110928B011092840110928301EB
:100B60000F90CF91DF911F910F91FF900895EF9219
:100B7000FF920F931F937B018C01F89480918D015C
:100B8000882351F4E114F1040105110529F0211520
:100B900031054105510509F46FD794E0220F331F49
:100BA000441F551F9A95D1F7C801B701EDD62150C2
:100BB00030404040504029B9232F342F452F55272E
:100BC00020BD88E18AB98EE880BD579A81E0809384
:100BD0008D0178941F910F91FF90EF900895EF92FF
:100BE000FF920F93DF93CF93CDB7DEB760970FB629
:100BF000F894DEBF0FBECDBFA82F002309F461C05B
:100C00007E010894E11CF11C88E0F70111928A959D
:100C1000E9F729833A834B835C836D837E83AF83BB
:100C2000988780E2801BE82FFF27E7FDF0954D8134
:100C30005E816F817885181684F01D861E861F865A
:100C4000188A882799278E1B9F0B04C07695679575
:100C5000579547958A95D2F728C0202F332727FD2F
:100C60003095DB01CA01022E04C0B695A795979571
:100C700087950A94D2F78D879E87AF87B88B04C07B
:100C8000440F551F661F771FEA95D2F789819A8115
:100C9000AB81BC8104C0B695A795979587952A9599
:100CA000D2F7482B592B6A2B7B2B49875A876B87A6
:100CB0007C8729853A854B855C856D857E85AF85EA
:100CC00098898A2F60960FB6F894DEBF0FBECDBF0D
:100CD000CF91DF910F91FF90EF900895AEE5B0E0D6
:100CE000E3E7F6E092C6A8E04E010894811C911C4F
:100CF000F4016A2E11926A94E9F729833A834B83AF
:100D00005C836D837E838F839887CE010996FC0177
:100D10001192AA95E9F7A986BA86CB86DC86ED867C
:100D2000FE860F87188B29843A844B845C84ED847B
:100D3000FE840F85188969807A808B809C806DA6DF
:100D40007EA68FA698AA6D807E808F809884E114FD
:100D5000F1040105110509F0A0C3621473048404B1
:100D6000950408F037C100E0201600E0300601E0ED
:100D7000400600E0500688F41FEF211631044104BC
:100D8000510439F030F048E0E42EF12C012D112D02
:100D900018C0EE24FF24870114C020E0221620E0B2
:100DA000320620E0420621E0520630F038E1E32E20
:100DB000F12C012D112D05C020E1E22EF12C012D89
:100DC000112DD201C1010E2C04C0B695A79597959F
:100DD00087950A94D2F7805A9F4FDC012C9180E2CC
:100DE00090E0A0E0B0E08E199F09A00BB10B7C0150
:100DF0008D01E21AF10801091109E114F10401055C
:100E00001105A1F10E2C04C0220C331C441C551CEE
:100E10000A94D2F7A40193010E2C04C0220F331FB1
:100E2000441F551F0A94D2F780E290E08E199F0963
:100E30006DA47EA48FA498A804C0969487947794F8
:100E400067948A95D2F7622A732A842A952AADA4D8
:100E5000BEA4CFA4D8A804C0AA0CBB1CCC1CDD1C0B
:100E6000EA94D2F7ADA6BEA6CFA6D8AA6201EE2418
:100E7000FF24CDAADEAAEFAAF8AE9201810120706C
:100E8000307009AF1AAF2BAF3CAFC401B301A7015B
:100E900096017AD57B018C01C401B3012DA93EA92D
:100EA0004FA958AD71D5C901DA013C014D01C4010A
:100EB000B30129AD3AAD4BAD5CAD88D59B01AC011A
:100EC0008701FF24EE24ADA4BEA4CFA4D8A8C601F8
:100ED000AA27BB2757016801A82AB92ACA2ADB2AF0
:100EE000A216B306C406D506E0F40894610871089A
:100EF00081089108A20CB31CC41CD51CA214B30415
:100F0000C404D50470F0A216B306C406D50648F48E
:100F100008946108710881089108A20CB31CC41CD4
:100F2000D51CA21AB30AC40AD50AC601B5012DA957
:100F30003EA94FA958AD28D57B018C01C601B5014A
:100F40002DA93EA94FA958AD1FD5C901DA015C01F1
:100F50006D01C601B50129AD3AAD4BAD5CAD36D5DD
:100F60009B01AC018701FF24EE248DA59EA5AFA5B2
:100F7000B8A9A070B070E82AF92A0A2B1B2BE21638
:100F8000F30604071507C0F40894A108B108C108C6
:100F9000D108E20CF31C041D151DE214F304040532
:100FA000150550F0E216F3060407150728F4089417
:100FB000A108B108C108D108D30199278827860163
:100FC0007501E82AF92A0A2B1B2BE9AAFAAA0BAB0E
:100FD0001CABB8C4211431044104510469F461E02C
:100FE00070E080E090E020E030E040E050E0CCD4E1
:100FF000C901DA011C012D0100E0201600E03006D5
:1010000001E0400600E0500688F41FEF211631048D
:101010004104510431F028F048E050E060E070E015
:1010200017C040E050E060E070E012C020E02216FF
:1010300020E0320620E0420621E0520628F048E196
:1010400050E060E070E004C040E150E060E070E03B
:10105000D201C101042E04C0B695A7959795879536
:101060000A94D2F7805A9F4FDC012C91E0E2EE2ED9
:10107000F12C012D112DD801C701841B950BA60B56
:10108000B70B821B9109A109B1090097A105B10510
:1010900061F464015301A218B308C408D50831E013
:1010A000632E712C812C912C18C16F968FAF6F9786
:1010B000082E04C0220C331C441C551C0A94D2F781
:1010C000EE2DE81B640153010E2E04C0D694C79484
:1010D000B794A7940A94D2F7A40193016F960FAC2A
:1010E0006F9704C0220F331F441F551F0A94D2F775
:1010F0006DA47EA48FA498A80E2E04C09694879405
:10110000779467940A94D2F784017301E22AF32A50
:10111000042B152BE9A6FAA60BA71CA732018824DD
:101120009924920181012070307021960CAF1DAF7F
:101130002EAF3FAF2197C601B501A401930124D47E
:101140007B018C01C601B501A40193011DD4C90125
:10115000DA0125968CAF9DAFAEAFBFAF2597BC012E
:10116000CD0121962CAD3DAD4EAD5FAD21972ED476
:101170009B01AC018701FF24EE24A9A4BAA4CBA44F
:10118000DCA4C601AA27BB275C016D01AE28BF28DD
:10119000C02AD12AA216B306C406D50660F5259644
:1011A0006CAD7DAD8EAD9FAD259761507040804098
:1011B000904025966CAF7DAF8EAF9FAF2597A20C68
:1011C000B31CC41CD51CA214B304C404D50498F0E9
:1011D000A216B306C406D50670F461507040804074
:1011E000904025966CAF7DAF8EAF9FAF2597A20C38
:1011F000B31CC41CD51CA21AB30AC40AD50AC60162
:10120000B501A4019301C0D37B018C01C601B501D6
:10121000A4019301B9D3C901DA013C014D01C40114
:10122000B30121962CAD3DAD4EAD5FAD2197CED330
:101230009B01AC018701FF24EE2489A59AA5ABA5EB
:10124000BCA5A070B07057016801A82AB92ACA2AA3
:10125000DB2AA216B306C406D506E0F4089461089A
:10126000710881089108A20CB31CC41CD51CA214DF
:10127000B304C404D50470F0A216B306C406D506A0
:1012800048F408946108710881089108A20CB31C05
:10129000C41CD51C8DA59EA5AFA5B8A96F960FAC93
:1012A0006F9704C0880F991FAA1FBB1F0A94D2F71B
:1012B0008DA79EA7AFA7B8ABA21AB30AC40AD50AD6
:1012C0002596ECACFDAC0EAD1FAD2597D701992747
:1012D0008827682A792A8A2A9B2A8201222733278B
:1012E00029960CAF1DAF2EAF3FAF2997A2019101F8
:1012F000407050702D962CAF3DAF4EAF5FAF2D9725
:10130000C601B50129962CAD3DAD4EAD5FAD299717
:101310003BD37B018C01C601B50129962CAD3DADB7
:101320004EAD5FAD299730D3C901DA0161968CAF1C
:101330009DAFAEAFBFAF6197BC01CD012D962CAD77
:101340003DAD4EAD5FAD2D9741D39B01AC01870103
:10135000FF24EE24ADA4BEA4CFA4D8A8C601AA271A
:10136000BB2757016801A82AB92ACA2ADB2AA21674
:10137000B306C406D50660F561966CAD7DAD8EAD45
:101380009FAD6197615070408040904061966CAF16
:101390007DAF8EAF9FAF6197A20CB31CC41CD51C50
:1013A000A214B304C404D50498F0A216B306C4066C
:1013B000D50670F4615070408040904061966CAFEB
:1013C0007DAF8EAF9FAF6197A20CB31CC41CD51C20
:1013D000A21AB30AC40AD50AC601B50129962CADD2
:1013E0003DAD4EAD5FAD2997CFD27B018C01C601DB
:1013F000B50129962CAD3DAD4EAD5FAD2997C4D258
:10140000C901DA015C016D01C601B5012D962CAD53
:101410003DAD4EAD5FAD2D97D9D29B01AC0187019B
:10142000FF24EE248DA59EA5AFA5B8A9A070B0702D
:10143000E82AF92A0A2B1B2BE216F30604071507E4
:10144000C0F40894A108B108C108D108E20CF31C4B
:10145000041D151DE214F3040405150550F0E216F1
:10146000F3060407150728F40894A108B108C10879
:10147000D1086196ECACFDAC0EAD1FAD6197D70104
:101480009927882796018501082B192B2A2B3B2B9E
:1014900009AB1AAB2BAB3CAB58C26E147F04800671
:1014A000910608F447C220E0E21620E0F20621E0AF
:1014B000020720E0120788F43FEFE316F10401056C
:1014C000110531F028F048E050E060E070E017C00E
:1014D00040E050E060E070E012C040E0E41640E020
:1014E000F40640E0040741E0140728F048E150E02A
:1014F00060E070E004C040E150E060E070E0D801DE
:10150000C701042E04C0B695A795979587950A94B0
:10151000D2F7805A9F4FDC012C9130E2A32EB12CE0
:10152000C12CD12CD601C501841B950BA60BB70B82
:10153000821B9109A109B1090097A105B10589F4A0
:10154000E614F7040805190508F4E8C16DA47EA4A3
:101550008FA498A8621473048404950408F0DEC173
:10156000E9C16E968FAF6E97082E04C0EE0CFF1C7B
:10157000001F111F0A94D2F76A2D681BD201C10106
:10158000062E04C0B695A795979587950A94D2F72D
:101590005C016D01AE28BF28C02AD12AADA2BEA22F
:1015A000CFA2D8A6720161016E960FAC6E9704C0EF
:1015B000CC0CDD1CEE1CFF1C0A94D2F7C9A2DAA2E7
:1015C000EBA2FCA264015301062E04C0D694C7947A
:1015D000B794A7940A94D2F7D401C3016E960FACC6
:1015E0006E9704C0880F991FAA1FBB1F0A94D2F7D9
:1015F000EDA4FEA40FA518A904C016950795F794AD
:10160000E7946A95D2F737014801682A792A8A2A2D
:101610009B2A6D8E7E8E8F8E98A2EDA0FEA00FA1CC
:1016200018A538018824992498018701207030700A
:1016300065960CAF1DAF2EAF3FAF6597C601B501E4
:10164000A4019301A1D17B018C01C601B501A401C4
:1016500093019AD1C901DA011C012D01C201B10126
:1016600065962CAD3DAD4EAD5FAD6597AFD19B019D
:10167000AC018701FF24EE24AD8CBE8CCF8CD8A0AA
:10168000C601AA27BB2757016801A82AB92ACA2A76
:10169000DB2AA216B306C406D50600F50894210875
:1016A000310841085108EDA0FEA00FA118A5AE0C0D
:1016B000BF1CC01ED11EAE14BF04C006D10670F000
:1016C000A216B306C406D50648F4089421083108CA
:1016D00041085108AE0CBF1CC01ED11EA21AB30A8D
:1016E000C40AD50AC601B501A40193014DD17B01FD
:1016F0008C01C601B501A401930146D1C901DA01EB
:101700003C014D01C401B30165962CAD3DAD4EAD1C
:101710005FAD65975BD19B01AC018701FF24EE248F
:101720008D8D9E8DAF8DB8A1A070B07057016801EE
:10173000A82AB92ACA2ADB2AA216B306C406D506E5
:1017400000F5089461087108810891086DA17EA1D7
:101750008FA198A5A60EB71EC81ED91EA616B7063D
:10176000C806D90670F0A216B306C406D50648F41A
:1017700008946108710881089108A60EB71EC81E5A
:10178000D91ED601C501821B930BA40BB50B898F03
:101790009A8FAB8FBC8FD1019927882764015301A1
:1017A000A82AB92ACA2ADB2AA9AABAAACBAADCAAD9
:1017B000860175012FEF3FEF40E050E0E222F32277
:1017C00004231523A601662777276D964CAF5DAFDE
:1017D0006EAF7FAF6D97A9A0BAA0CBA0DCA06FEFD2
:1017E0007FEF80E090E0A622B722C822D92289A10B
:1017F0009AA1ABA1BCA11D0144245524C801B70185
:10180000A6019501E3D069966CAF7DAF8EAF9FAF17
:101810006997C801B701A2019101D8D03B014C01E1
:101820006D966CAD7DAD8EAD9FAD6D97A6019501AA
:10183000CDD07B018C016D966CAD7DAD8EAD9FAD35
:101840006D97A2019101C2D05B016C01A8019701C3
:10185000260D371D481D591D69966CAC7DAC8EACAC
:101860009FAC6997C401AA27BB27280F391F4A1FBD
:101870005B1F2E153F054007510748F4E12CF12C62
:1018800061E0062F112DAE0CBF1CC01ED11ECA0177
:10189000AA27BB27BC01CD016A0D7B1D8C1D9D1D98
:1018A000698C7A8C8B8C9C8C6616770688069906D8
:1018B00040F1661577058805990509F043C0D901FF
:1018C0009927882769962CAD3DAD4EAD5FAD6997E0
:1018D00040705070820F931FA41FB51F2DA53EA509
:1018E0004FA558A96E960FAC6E9704C0220F331FF8
:1018F000441F551F0A94D2F7281739074A075B0778
:1019000008F509A91AA92BA93CA9015010402040AB
:10191000304009AB1AAB2BAB3CAB14C06624772428
:10192000430121E030E040E050E029AB3AAB4BAB63
:101930005CAB0BC066247724430119AA1AAA1BAA20
:101940001CAA03C0662477244301FE01719688E037
:10195000DF011D928A95E9F7A9A8BAA8CBA8DCA84F
:10196000A98ABA8ACB8ADC8A6D8A7E8A8F8A988E07
:1019700029A93A894B895C89662D7E898F89988D42
:10198000C25ADF4FE2E15DC0A1E21A2EAA1BBB1BC7
:10199000FD010DC0AA1FBB1FEE1FFF1FA217B3073B
:1019A000E407F50720F0A21BB30BE40BF50B661F51
:1019B000771F881F991F1A9469F760957095809515
:1019C00090959B01AC01BD01CF010895629FD001AC
:1019D000739FF001829FE00DF11D649FE00DF11DEA
:1019E000929FF00D839FF00D749FF00D659FF00D99
:1019F0009927729FB00DE11DF91F639FB00DE11D86
:101A0000F91FBD01CF01112408952F923F924F92EB
:101A10005F926F927F928F929F92AF92BF92CF927E
:101A2000DF92EF92FF920F931F93CF93DF93CDB787
:101A3000DEB7CA1BDB0B0FB6F894DEBF0FBECDBFFF
:101A400009942A88398848885F846E847D848C84D0
:101A50009B84AA84B984C884DF80EE80FD800C81D9
:101A60001B81AA81B981CE0FD11D0FB6F894DEBFBC
:101A70000FBECDBFED01089581E090E0F89400C065
:041A8000F894FFCF08
:101A84000001020203030303040404040404040421
:101A940005050505050505050505050505050505F2
:101AA40006060606060606060606060606060606D2
:101AB40006060606060606060606060606060606C2
:101AC40007070707070707070707070707070707A2
:101AD4000707070707070707070707070707070792
:101AE4000707070707070707070707070707070782
:101AF4000707070707070707070707070707070772
:101B04000808080808080808080808080808080851
:101B14000808080808080808080808080808080841
:101B24000808080808080808080808080808080831
:101B34000808080808080808080808080808080821
:101B44000808080808080808080808080808080811
:101B54000808080808080808080808080808080801
:101B640008080808080808080808080808080808F1
:101B740008080808080808080808080808080808E1
:00000001FF
